:020000040800F2
:100000000000022085010008D1010008D10100088C
:10001000D1010008D1010008D10100080000000052
:10002000000000000000000000000000D1010008F6
:10003000D101000800000000D1010008D909000822
:10004000D1010008D1010008D1010008D101000848
:10005000D1010008D1010008D1010008D101000838
:10006000D1010008D1010008D1010008D101000828
:10007000D1010008D1010008D1010008D101000818
:10008000D1010008D1010008D1010008D101000808
:10009000D1010008D1010008D1010008D1010008F8
:1000A000D1010008D1010008D1010008D1010008E8
:1000B000D1010008D1010008D1010008D1010008D8
:1000C000D1010008D1010008D1010008D1010008C8
:1000D000D1010008D1010008D1010008D1010008B8
:1000E000D1010008D1010008D1010008D1010008A8
:1000F000D1010008D1010008D1010008D101000898
:10010000D1010008D1010008D1010008D101000887
:10011000D1010008D1010008D1010008D101000877
:10012000D1010008D1010008D1010008D101000867
:10013000D1010008D1010008D1010008D101000857
:10014000D1010008D1010008D1010008D101000847
:10015000D1010008D1010008D1010008D101000837
:10016000D1010008D1010008D1010008D101000827
:10017000D1010008D1010008D101000800000000F1
:10018000D1010008DFF830D0002103E00B4B5B58B1
:10019000435004310A480B4B42189A42F6D30A4A9C
:1001A00002E0002342F8043B084B9A42F9D301F0E5
:1001B000D7F800F067FB70470000022064150008C4
:1001C000000000201400002014000020180000206F
:1001D000FEE7000090B486B000AF7860396000237D
:1001E0003B610023FB600023BB6000237B616BE16C
:1001F0007B69012202FA03F33B613B681A683B69A1
:100200001340FB60FA683B699A4240F05A813B68B0
:100210005B68022B03D03B685B68122B2AD13B68DA
:100220001B697A6902F0070292009340BB607B6908
:10023000DA087B69D9087B68083153F821107B699B
:1002400003F007039B0018460F238340DB4319404C
:100250007B68083243F822107B69DA087B69D90889
:100260007B68083153F82110BB6819437B6808325A
:1002700043F822107B681A687B695B0019460323E8
:100280008B40DB431A407B681A607B681A683B68C6
:100290005B6803F00303796949008B401A437B686C
:1002A0001A603B685B68012B0BD03B685B68022BD4
:1002B00007D03B685B68112B03D03B685B68122B4F
:1002C0002BD17B689A687B695B00194603238B40BE
:1002D000DB431A407B689A607B689A683B68DB68FE
:1002E000796949008B401A437B689A607B685A6839
:1002F0007B69012101FA03F3DB431A407B685A60F2
:100300007B685A683B685B6803F0100319097B69D6
:1003100001FA03F31A437B685A607B68DA687B69E9
:100320005B00194603238B40DB431A407B68DA608D
:100330007B68DA683B689B68796949008B401A439F
:100340007B68DA603B685B6803F08053002B00F049
:10035000B880614A604B5B6C43F4804353647B69B3
:1003600003F003039B001A460F239340BB605B48D6
:100370007B699B0859497A699208023251F8221028
:10038000BA68D2430A40023340F82320534C7B69B9
:100390009908524A7B699B08023352F823207B68F4
:1003A0004F48834237D07B684E48834231D07B68C8
:1003B0004D4883422BD07B684C48834225D07B68D4
:1003C0004B4883421FD07B684A48834219D07B68E0
:1003D0004948834213D07B68484883420DD07B68EC
:1003E0004748834207D07B684648834201D10923AE
:1003F00012E00A2310E008230EE007230CE0062396
:100400000AE0052308E0042306E0032304E00223B6
:1004100002E0012300E00023786900F0030080007F
:1004200083401A438B1C44F823203749364B1A6803
:10043000FB68DB4313400B603349334B5A68FB685E
:10044000DB4313404B603B685B6803F48033002B55
:1004500005D02D492C4B1A68FB6813430B603B6891
:100460005B6803F40033002B05D02749264B5A68FC
:10047000FB6813434B602449234B9A68FB68DB43BA
:1004800013408B602049204BDA68FB68DB43134044
:10049000CB603B685B6803F48013002B05D01A49DE
:1004A000194B9A68FB6813438B603B685B6803F4E5
:1004B0000013002B05D01449134BDA68FB68134373
:1004C000CB607B6901337B617B690F2B7FF690AE3C
:1004D0001837BD4690BC70470038024000380140D4
:1004E000000002400004024000080240000C0240EC
:1004F000001002400014024000180240001C02409C
:100500000020024000240240003C014080B483B03F
:1005100000AF78600B467B8013467B707B78002BA6
:1005200003D07B687A881A8302E07B687A885A83D2
:100530000C37BD465DF8047B704700BF80B483B0C4
:1005400000AF78600B467B807B685A697B885A4095
:100550007B685A610C37BD465DF8047B704700BF6D
:1005600080B58CB000AF78600023FB620023BB62D3
:100570007B681B6803F00103002B54D06A4B0022F8
:100580001A6000F0C7FF03466433FB6207E000F027
:10059000C1FF0246FB6A9A4201D30323C0E0634BCA
:1005A0001B6803F00063002BF1D160487B685B6837
:1005B00047F6C0727A627A6A92FAA2F23A623A6AAC
:1005C000FA61FA69B2FA82F2FA76FA7E03FA02F274
:1005D0007B689B684FF0E0417961796991FAA1F1FC
:1005E00039613969F960F968B1FA81F1F972F97A1A
:1005F0008B401343C0F884304B4B01221A6000F04B
:1006000089FF03466433FB6207E000F083FF024684
:10061000FB6A9A4201D3032382E0444B1B6803F038
:100620000063002BF1D07B681B6803F00803002BEC
:1006300075D03E4A3D4B1B6C43F0805313643C4ADB
:100640003B4B1B6843F48073136000F063FF034669
:100650006433FB6207E000F05DFF0246FB6A9A42EA
:1006600001D303235CE0324B1B6803F48073002B3F
:10067000F1D02E4B1A6F7B68DB68534003F4407354
:10068000002B0DD0294B1B6F23F44073BB62294B09
:1006900001221A60274B00221A60244ABB6A1367A2
:1006A0007B68DB68B3F5807F15D100F033FF03462C
:1006B00003F59C530833FB6207E000F02BFF024672
:1006C000FB6A9A4201D303232AE0184B1B6F03F005
:1006D0000203002BF1D07B68DB6803F44073B3F5B1
:1006E000407F0DD11149114B9B6823F4F8127B68B0
:1006F000DB6823F0704323F4407313438B6005E001
:100700000A4A0A4B9B6823F4F81393600749074B86
:100710001A6F7B68DB68C3F30B0313430B6700237B
:1007200018463037BD4680BD680047420038024059
:1007300000700040400E474280B485B000AF786042
:100740007B6803F00703FB600C4BDB68BB60BA6897
:100750004FF6FF031340BB60FB681A02BB681343EC
:1007600043F0BF6343F40033BB60044ABB68D3600B
:100770001437BD465DF8047B704700BF00ED00E014
:1007800080B483B000AF03463960FB7197F907303E
:10079000002B0BDA0D49FB7903F00F03043B3A6899
:1007A000D2B21201D2B20B441A7609E0084997F985
:1007B00007303A68D2B21201D2B20B4483F8002358
:1007C0000C37BD465DF8047B704700BF00ED00E0CC
:1007D00000E100E080B582B000AF78607B68B3F1E3
:1007E000807F01D3012311E00A4A7B6823F07F4315
:1007F000013B53604FF0FF300F21FFF7C1FF054B66
:1008000000229A60034B07221A600023184608371B
:10081000BD4680BD10E000E080B582B000AF7860DA
:100820007868FFF789FF0837BD4680BD80B582B084
:1008300000AF78607868FFF7CDFF034618460837A9
:10084000BD4680BD80B500AF0C484FF48071FFF706
:1008500075FE40F24D1000F069FE09488021FFF757
:100860006DFE40F24D1000F061FE05484021FFF79B
:1008700065FE40F24D1000F059FEE5E70000024031
:100880000004024080B500AF00F014FE00F01CF838
:1008900000F054F80948C0210122FFF737FE08484C
:1008A0004FF480710122FFF731FE06480221012238
:1008B000FFF72CFEFFF7C6FF184680BD000402407C
:1008C000000002400008024080B596B000AF01234E
:1008D000BB620123FB6202233B644FF480037B6411
:1008E0001023BB64C023FB6404233B6504237B65A6
:1008F00007F12803184600F0C1F80D237B6102239D
:10090000BB610023FB614FF4A0533B624FF4A05343
:100910007B6207F114031846022100F0FDFA01235F
:100920003B60C0237B600223BB603B461846FFF759
:1009300017FE00F043FD5837BD4680BD80B586B038
:1009400000AF214A204B1B6B43F0020313631E4A86
:100950001D4B1B6B43F0010313631B4A1A4B1B6BAC
:1009600043F080031363184A174B1B6B43F00403D7
:100970001363C0237B600123BB600023FB60012362
:100980003B613B1D11481946FFF724FC4FF480736F
:100990007B600123BB600023FB6001233B613B1DA7
:1009A0000B481946FFF716FC02237B600123BB604E
:1009B0000023FB6001233B613B1D06481946FFF7FE
:1009C00009FC1837BD4680BD0038024000040240D3
:1009D000000002400008024080B500AF00F08CFD2E
:1009E00080BD00BF80B483B000AF03463960FB71A7
:1009F00097F90730002B0BDA0D49FB7903F00F0351
:100A0000043B3A68D2B21201D2B20B441A7609E022
:100A1000084997F907303A68D2B21201D2B20B44B2
:100A200083F800230C37BD465DF8047B704700BF98
:100A300000ED00E000E100E080B582B000AF78603A
:100A40007B68B3F1807F01D3012311E00A4A7B6800
:100A500023F07F43013B53604FF0FF300F21FFF73E
:100A6000C1FF054B00229A60034B07221A60002346
:100A700018460837BD4680BD10E000E080B594B050
:100A800000AF78600023FB647B681B6803F0010300
:100A9000002B6DD0A84B9B6803F00C03042B0BD0EC
:100AA000A54B9B6803F00C03082B12D1A24B5B688B
:100AB00003F48003002B0CD09F4B1B6803F400331E
:100AC000002B05D07B685B68012B01D0012318E265
:100AD0004EE09A4B00221A7000F01CFD034603F50D
:100AE0009C530833FB6407E000F014FD0246FB6CE6
:100AF0009A4201D3032304E28F4B1B6803F40033B3
:100B0000002BF1D18D4A7B685B68DBB213707B6888
:100B10005B68012B16D100F0FDFC034603F59C53E6
:100B20000833FB6407E000F0F5FC0246FB6C9A42D8
:100B300001D30323E5E1804B1B6803F40033002B52
:100B4000F1D015E000F0E6FC034603F59C530833B2
:100B5000FB6407E000F0DEFC0246FB6C9A4201D326
:100B60000323CEE1744B1B6803F40033002BF1D157
:100B70007B681B6803F00203002B6AD06E4B9B68F6
:100B800003F00C03002B0BD06B4B9B6803F00C03A2
:100B9000082B12D1684B5B6803F48003002B0CD147
:100BA000654B1B6803F00203002B05D07B68DB68F4
:100BB000012B01D00123A4E14BE07B68DB68002B13
:100BC00030D05F4B01221A6000F0A4FC034664336E
:100BD000FB6407E000F09EFC0246FB6C9A4201D3E6
:100BE00003238EE1544B1B6803F00203002BF1D06A
:100BF0005148514B1B6823F0F8027B681B69F821B0
:100C0000B964B96C91FAA1F17964796C3964396C81
:100C1000B1FA81F187F83F1097F83F108B401343EA
:100C2000036016E0464B00221A6000F073FC034696
:100C30006433FB6407E000F06DFC0246FB6C9A42F3
:100C400001D303235DE13C4B1B6803F00203002B3F
:100C5000F1D17B681B6803F00803002B32D07B685E
:100C60005B69002B17D0374B01221A6000F052FC51
:100C700003466433FB6407E000F04CFC0246FB6C67
:100C80009A4201D303233CE12B4B5B6F03F0020339
:100C9000002BF1D016E02B4B00221A6000F03AFC3A
:100CA00003466433FB6407E000F034FC0246FB6C4F
:100CB0009A4201D3032324E11F4B5B6F03F002032D
:100CC000002BF1D17B681B6803F00403002B7BD061
:100CD000194A194B1B6C43F0805313641A4A1A4B80
:100CE0001B6843F48073136000F014FC0346643304
:100CF000FB6407E000F00EFC0246FB6C9A4201D355
:100D00000323FEE0104B1B6803F48073002BF1D02B
:100D10000E4B00221A7000F0FDFB034603F59C53B6
:100D20000833FB6414E000F0F5FB0246FB6C9A42CA
:100D30000ED30323E5E000BF003802400238024032
:100D400000004742800E4742007000407038024069
:100D50006E4B1B6F03F00203002BE4D16C4A7B68DF
:100D60009B68DBB213707B689B68012B16D100F087
:100D7000D1FB034603F59C530833FB6407E000F006
:100D8000C9FB0246FB6C9A4201D30323B9E05F4BD7
:100D90001B6F03F00203002BF1D015E000F0BAFB4B
:100DA000034603F59C530833FB6407E000F0B2FBF5
:100DB0000246FB6C9A4201D30323A2E0534B1B6F04
:100DC00003F00203002BF1D17B689B69002B00F03C
:100DD00097804E4B9B6803F00C03082B00F08E802D
:100DE0007B689B69022B71D14A4B00221A6000F08C
:100DF00091FB03466433FB6407E000F08BFB024683
:100E0000FB6C9A4201D303237BE0404B1B6803F049
:100E10000073002BF1D13D487B681A6A7B685B6ADE
:100E200047F6C071B963B96B91FAA1F17963796B37
:100E30003963396BB1FA81F187F82F1097F82F10C9
:100E40008B401A437B689B6A5B08013B4FF440313F
:100E5000B962B96A91FAA1F17962796A3962396A3B
:100E6000B1FA81F1F977F97F8B401A437B68DB692E
:100E70001A437B68DB6A4FF07061B961B96991FA16
:100E8000A1F17961796939613969B1FA81F1F9734F
:100E9000F97B8B40134343F0005343601D4B012209
:100EA0001A6000F037FB03466433FB6407E000F090
:100EB00031FB0246FB6C9A4201D3032321E0134B22
:100EC0001B6803F00073002BF1D019E0114B0022D6
:100ED0001A6000F01FFB03466433FB6407E000F078
:100EE00019FB0246FB6C9A4201D3032309E0074B2E
:100EF0001B6803F00073002BF1D101E0012300E037
:100F0000002318465037BD4680BD00BF0038024060
:100F1000703802406000474280B584B000AF78600E
:100F200039600023FB60A54B1B6803F007023B6898
:100F30009A4280F08B80A14B3A68D2B21A709F4BD4
:100F40001B6803F007023B689A4201D0012330E19D
:100F50007B681B6803F00203002B08D09849984B6C
:100F60009B6823F0F0027B689B6813438B607B686F
:100F70001B6803F00103002B00F0F1807B685B68C5
:100F8000012B07D18E4B1B6803F40033002B15D1C6
:100F900001230EE17B685B68022B07D1884B1B683D
:100FA00003F00073002B09D1012302E1844B1B687D
:100FB00003F00203002B01D10123FAE08049804BAA
:100FC0009B6823F003027B685B6813438B6000F02F
:100FD000A1FA034603F59C530833FB607B685B680A
:100FE000012B0FD107E000F095FA0246FB689A4208
:100FF00001D30323DDE0724B9B6803F00C03042B49
:10100000F1D1ACE07B685B68022B0FD107E000F008
:1010100081FA0246FB689A4201D30323C9E0684B78
:101020009B6803F00C03082BF1D198E007E000F077
:1010300071FA0246FB689A4201D30323B9E0604B80
:101040009B6803F00C03002BF1D188E07B681B68E0
:1010500003F00203002B08D05949594B9B6823F039
:10106000F0027B689B6813438B607B681B6803F00E
:101070000103002B66D07B685B68012B07D1504BC6
:101080001B6803F40033002B15D1012391E07B682A
:101090005B68022B07D14A4B1B6803F00073002BDF
:1010A00009D1012385E0464B1B6803F00203002BA6
:1010B00001D101237DE04249414B9B6823F00302AB
:1010C0007B685B6813438B6000F024FA034603F5EA
:1010D0009C530833FB607B685B68012B0FD107E0F2
:1010E00000F018FA0246FB689A4201D3032360E03D
:1010F000334B9B6803F00C03042BF1D122E07B6897
:101100005B68022B0FD107E000F004FA0246FB688F
:101110009A4201D303234CE0294B9B6803F00C0354
:10112000082BF1D10EE007E000F0F4F90246FB686D
:101130009A4201D303233CE0214B9B6803F00C034C
:10114000002BF1D11D4B3A68D2B21A701B4B1B68B1
:1011500003F007023B689A4201D0012329E07B6833
:101160001B6803F00403002B08D01549144B9B683F
:1011700023F4E0527B68DB6813438B607B681B6859
:1011800003F00803002B09D00D490D4B9B6823F495
:1011900060427B681B69DB0013438B6000F0B0F892
:1011A0000246084BA3FB02239B091846FFF744FCA9
:1011B000002318461037BD4680BD00BF003C0240EA
:1011C00000380240D34D621080B495B000AF0023C8
:1011D0007B640023FB6400233B640023BB64454B1A
:1011E0009B6803F00C03042B06D0082B07D0002BC0
:1011F00076D1414BBB6476E0404BBB6473E03D4B22
:101200005B6803F03F037B643A4B5B6803F4800345
:101210004FF48002FA63FA6B92FAA2F2BA63BA6BE5
:101220007A637A6BB2FA82F287F8332097F8332028
:10123000D340002B1DD0314A7B6CB2FBF3F22D4B17
:10124000596847F6C0730B4047F6C071F962F96AF6
:1012500091FAA1F1B962B96A7962796AB1FA81F158
:1012600087F8231097F82310CB4003FB02F3FB64AD
:101270001AE0214A7B6CB2FBF3F21E4B596847F629
:10128000C0730B4047F6C071F961F96991FAA1F199
:10129000B961B96979617969B1FA81F1F974F97C57
:1012A000CB4003FB02F3FB64124B5B6803F4403357
:1012B0004FF44032FA60FA6892FAA2F2BA60BA6861
:1012C0007A607A68B2FA82F2FA70FA78D34001331F
:1012D0005B003B64FA6C3B6CB2FBF3F3BB6402E073
:1012E000054BBB6400BFBB6C18465437BD465DF868
:1012F000047B7047003802400024F40040787D01F0
:1013000080B584B000AFFFF75FFF01460E4B9B68CE
:1013100003F0F003F022FA60FA6892FAA2F2BA60DF
:10132000BA687A607A68B2FA82F2FA70FA78D340D0
:10133000064AD35C21FA03F3054A1360044B1B6889
:1013400018461037BD4680BD0038024054150008CD
:101350000000002080B400AFBD465DF8047B7047FC
:1013600080B400AF124A124B1B6843F001031360B4
:101370000F4B00229A600E4A0D4B1B6823F08473BA
:1013800023F4803313600A4B0A4A5A60084A084B18
:101390001B6823F480231360054B0022DA60064BA0
:1013A0004FF000629A60BD465DF8047B704700BF55
:1013B000003802401030002400ED00E080B487B017
:1013C00000AF00233B6100237B610223FB6000230D
:1013D000BB6002237B60324B9B6803F00C033B61D4
:1013E0003B69042B07D0082B09D0002B3FD12D4B94
:1013F0002D4A1A603FE02B4B2C4A1A603BE0284BE9
:101400005B6803F480039B0DBB60254B5B6803F0B6
:101410003F037B60BB68002B0DD0244A7B68B2FB86
:10142000F3F21F4B596847F6C0730B409B0903FB4F
:1014300002F37B610CE01C4A7B68B2FBF3F2184BB1
:10144000596847F6C0730B409B0903FB02F37B61AD
:10145000134B5B6803F440331B0C01335B00FB60F0
:101460007A69FB68B2FBF3F30E4A136003E00D4B9D
:101470000D4A1A6000BF0A4B9B6803F0F0031B097A
:101480000B4AD35CDBB23B61064B1A683B6922FA1C
:1014900003F3044A13601C37BD465DF8047B7047B4
:1014A00000380240000000200024F40040787D0154
:1014B0000400002080B500AF0E4A0E4B1B6843F4B9
:1014C000007313600B4A0B4B1B6843F4806313607B
:1014D000084A084B1B6843F4807313604FF47A503A
:1014E000FFF7A4F90320FFF797F9FFF733FF002375
:1014F000184680BD003C024080B400AF044B1B681E
:101500000133034A1360BD465DF8047B704700BF9A
:101510001400002080B400AF034B1B681846BD4682
:101520005DF8047B704700BF1400002080B584B0D4
:1015300000AF7860FFF7EEFF02467B681344FB6064
:1015400000BFFFF7E7FF0246FB689A42F9D3103766
:10155000BD4680BD00000000010203040102030437
:041560000607080969
:10156400001BB7000000000000000000010203049B
:041574000607080955
:0400000508000000EF
:00000001FF
